:100000000AC047C010C00FC00EC00DC00CC00BC04E
:100010000AC009C008C011271FBFCFE5D0E0DEBF6E
:10002000CDBF39D046C1ECCF382F12D088E71ED0D3
:1000300080E01CD081E21AD0832F18D0892F16D0EF
:1000400082E214D0862F12D0872F10D009D00895C5
:10005000109A0000119A000010980000119808955D
:1000600010980000119A0000109A089548E087FF48
:1000700002C0109A01C01098880F0000119A000069
:10008000119800004A9599F7109A119A000011985A
:10009000089514E0189533E031B934E033B9789419
:1000A000989AA99A35E03ABF83ED90E35CD0E6EBED
:1000B000F2E439E1CDDF88E7D9DF80E0D7DF819155
:1000C000D5DF3A95E1F7CCDFC3DF88E7CFDF80E407
:1000D000CDDF30E080E0CADF80E0C8DF3150D1F70B
:1000E000BFDF30E033A934A935A900E032A938E7F1
:1000F00031A93AE530A983ED90E335D0010F033102
:1001000010F01CEF03C0002309F410E060E070E081
:1001100084E695E789DF84D0ABD063E073E080E0CC
:100120009FE782DF36D060E073E08AE091E17CDF18
:10013000802F4DD020A12031F0F62A30E0F2083097
:10014000D0F634E026EA13D08FEF9FEF0CD03A952B
:10015000D1F77EDF88E78ADF80E088DF8EEA86DFFE
:100160007FDF8895A1CF81509040E9F7089570DF37
:1001700088E77CDF80E07ADF81E02827822F76DF46
:1001800080E074DF80E072DF6BDF08951820FEFCF2
:10019000301E5EDF88E76ADF80E468DF30E0C0E4BD
:1001A000D0E05991552311F45991351749F4ECE8F1
:1001B000F1E465E081915ADF33956A95DAF7599158
:1001C00080E854DF3395303881F74ADF0895A82F4F
:1001D0003FDF88E74BDF80E449DF78E0E0E1F2E4ED
:1001E00020E030E0919151916A2F04C05695979587
:1001F000379527956A95D2F7822F38DF832F36DF20
:10020000892F34DF852F32DF7A9551F729DF089562
:10021000000E001800FC003FC0FFA00FE002C0006D
:1002200073A17B5F723350F070E084A18B5F8233E7
:1002300020F080E095A19B5F95A984A973A908DFB0
:1002400088E714DF80E412DF85A105D084A103D004
:1002500083A101D005DF90E0F2E4E0EDE80FF91FA3
:1002600034E0819103DF3A95E2F780E0FFDE089504
:1002700020A131A142A143507AF440E0393662F422
:1002800036344AF086A1482F440F8427802786A958
:1002900040E08E3B08F048E7335012F4342F40E042
:1002A00023501AF4232F342F40E020A931A942A96A
:0602B0000895F894FFCF51
:1002B600AEA81FD300408D142001DA028180D9F147
:1002C600DB4022000321007FAF007C8282827C001B
:1002D60084FE800084C2A2928C448292926C302862
:1002E60024FE209E929292607C9292926002E2128A
:0C02F6000A066C9292926C0C9292927C20
:080302005A79000000006700B9
:0400000300000050A9
:00000001FF
